{
  "_format": "hh-sol-artifact-1",
  "contractName": "RegistrationSystem",
  "sourceName": "contracts/RegistrationSystem.sol",
  "abi": [
    {
      "inputs": [],
      "stateMutability": "nonpayable",
      "type": "constructor"
    },
    {
      "inputs": [],
      "name": "admin",
      "outputs": [
        {
          "internalType": "address",
          "name": "",
          "type": "address"
        }
      ],
      "stateMutability": "view",
      "type": "function"
    },
    {
      "inputs": [
        {
          "internalType": "uint256",
          "name": "_studentId",
          "type": "uint256"
        }
      ],
      "name": "getStudentById",
      "outputs": [
        {
          "components": [
            {
              "internalType": "uint256",
              "name": "id",
              "type": "uint256"
            },
            {
              "internalType": "string",
              "name": "fullName",
              "type": "string"
            },
            {
              "internalType": "string",
              "name": "class",
              "type": "string"
            }
          ],
          "internalType": "struct RegistrationSystem.StudentDetails",
          "name": "",
          "type": "tuple"
        }
      ],
      "stateMutability": "view",
      "type": "function"
    },
    {
      "inputs": [
        {
          "internalType": "string",
          "name": "_fullName",
          "type": "string"
        },
        {
          "internalType": "string",
          "name": "_class",
          "type": "string"
        }
      ],
      "name": "registerStudent",
      "outputs": [
        {
          "internalType": "bool",
          "name": "",
          "type": "bool"
        }
      ],
      "stateMutability": "nonpayable",
      "type": "function"
    },
    {
      "inputs": [
        {
          "internalType": "uint256",
          "name": "_studentId",
          "type": "uint256"
        }
      ],
      "name": "removeStudent",
      "outputs": [
        {
          "internalType": "bool",
          "name": "",
          "type": "bool"
        }
      ],
      "stateMutability": "nonpayable",
      "type": "function"
    },
    {
      "inputs": [],
      "name": "studentCounts",
      "outputs": [
        {
          "internalType": "uint256",
          "name": "",
          "type": "uint256"
        }
      ],
      "stateMutability": "view",
      "type": "function"
    }
  ],
  "bytecode": "0x6080604052348015600f57600080fd5b50336000806101000a81548173ffffffffffffffffffffffffffffffffffffffff021916908373ffffffffffffffffffffffffffffffffffffffff1602179055506112778061005f6000396000f3fe608060405234801561001057600080fd5b50600436106100575760003560e01c80630a1b776c1461005c5780636af838451461008c578063c8fb0793146100bc578063f851a440146100ec578063fb3189e81461010a575b600080fd5b610076600480360381019061007191906108d4565b610128565b6040516100839190610967565b60405180910390f35b6100a660048036038101906100a191906109b8565b61031b565b6040516100b39190610967565b60405180910390f35b6100d660048036038101906100d191906109b8565b610562565b6040516100e39190610aca565b60405180910390f35b6100f46106d2565b6040516101019190610b2d565b60405180910390f35b6101126106f6565b60405161011f9190610b57565b60405180910390f35b60008060009054906101000a900473ffffffffffffffffffffffffffffffffffffffff1673ffffffffffffffffffffffffffffffffffffffff163373ffffffffffffffffffffffffffffffffffffffff16146101b9576040517f08c379a00000000000000000000000000000000000000000000000000000000081526004016101b090610bcf565b60405180910390fd5b600073ffffffffffffffffffffffffffffffffffffffff163373ffffffffffffffffffffffffffffffffffffffff1603610228576040517f08c379a000000000000000000000000000000000000000000000000000000000815260040161021f90610c3b565b60405180910390fd5b600083511161026c576040517f08c379a000000000000000000000000000000000000000000000000000000000815260040161026390610ca7565b60405180910390fd5b60006001600081548092919061028190610cf6565b91905055905061028f6106fc565b8181600001818152505084816020018190525083816040018190525060028190806001815401808255809150506001900390600052602060002090600302016000909190919091506000820151816000015560208201518160010190816102f69190610f4a565b50604082015181600201908161030c9190610f4a565b50505060019250505092915050565b60008060009054906101000a900473ffffffffffffffffffffffffffffffffffffffff1673ffffffffffffffffffffffffffffffffffffffff163373ffffffffffffffffffffffffffffffffffffffff16146103ac576040517f08c379a00000000000000000000000000000000000000000000000000000000081526004016103a390610bcf565b60405180910390fd5b600073ffffffffffffffffffffffffffffffffffffffff163373ffffffffffffffffffffffffffffffffffffffff160361041b576040517f08c379a000000000000000000000000000000000000000000000000000000000815260040161041290610c3b565b60405180910390fd5b6002805490508210610462576040517f08c379a000000000000000000000000000000000000000000000000000000000815260040161045990611068565b60405180910390fd5b600260016002805490506104769190611088565b81548110610487576104866110bc565b5b9060005260206000209060030201600283815481106104a9576104a86110bc565b5b906000526020600020906003020160008201548160000155600182018160010190816104d59190611101565b50600282018160020190816104ea9190611101565b509050506002805480610500576104ff6111e9565b5b600190038181906000526020600020906003020160008082016000905560018201600061052d919061071d565b60028201600061053d919061071d565b505090556001600081548092919061055490611218565b919050555060019050919050565b61056a6106fc565b6000600283815481106105805761057f6110bc565b5b9060005260206000209060030201604051806060016040529081600082015481526020016001820180546105b390610d6d565b80601f01602080910402602001604051908101604052809291908181526020018280546105df90610d6d565b801561062c5780601f106106015761010080835404028352916020019161062c565b820191906000526020600020905b81548152906001019060200180831161060f57829003601f168201915b5050505050815260200160028201805461064590610d6d565b80601f016020809104026020016040519081016040528092919081815260200182805461067190610d6d565b80156106be5780601f10610693576101008083540402835291602001916106be565b820191906000526020600020905b8154815290600101906020018083116106a157829003601f168201915b505050505081525050905080915050919050565b60008054906101000a900473ffffffffffffffffffffffffffffffffffffffff1681565b60015481565b60405180606001604052806000815260200160608152602001606081525090565b50805461072990610d6d565b6000825580601f1061073b575061075a565b601f016020900490600052602060002090810190610759919061075d565b5b50565b5b8082111561077657600081600090555060010161075e565b5090565b6000604051905090565b600080fd5b600080fd5b600080fd5b600080fd5b6000601f19601f8301169050919050565b7f4e487b7100000000000000000000000000000000000000000000000000000000600052604160045260246000fd5b6107e182610798565b810181811067ffffffffffffffff82111715610800576107ff6107a9565b5b80604052505050565b600061081361077a565b905061081f82826107d8565b919050565b600067ffffffffffffffff82111561083f5761083e6107a9565b5b61084882610798565b9050602081019050919050565b82818337600083830152505050565b600061087761087284610824565b610809565b90508281526020810184848401111561089357610892610793565b5b61089e848285610855565b509392505050565b600082601f8301126108bb576108ba61078e565b5b81356108cb848260208601610864565b91505092915050565b600080604083850312156108eb576108ea610784565b5b600083013567ffffffffffffffff81111561090957610908610789565b5b610915858286016108a6565b925050602083013567ffffffffffffffff81111561093657610935610789565b5b610942858286016108a6565b9150509250929050565b60008115159050919050565b6109618161094c565b82525050565b600060208201905061097c6000830184610958565b92915050565b6000819050919050565b61099581610982565b81146109a057600080fd5b50565b6000813590506109b28161098c565b92915050565b6000602082840312156109ce576109cd610784565b5b60006109dc848285016109a3565b91505092915050565b6109ee81610982565b82525050565b600081519050919050565b600082825260208201905092915050565b60005b83811015610a2e578082015181840152602081019050610a13565b60008484015250505050565b6000610a45826109f4565b610a4f81856109ff565b9350610a5f818560208601610a10565b610a6881610798565b840191505092915050565b6000606083016000830151610a8b60008601826109e5565b5060208301518482036020860152610aa38282610a3a565b91505060408301518482036040860152610abd8282610a3a565b9150508091505092915050565b60006020820190508181036000830152610ae48184610a73565b905092915050565b600073ffffffffffffffffffffffffffffffffffffffff82169050919050565b6000610b1782610aec565b9050919050565b610b2781610b0c565b82525050565b6000602082019050610b426000830184610b1e565b92915050565b610b5181610982565b82525050565b6000602082019050610b6c6000830184610b48565b92915050565b600082825260208201905092915050565b7f4865792120596f7520617265206e6f74207468652061646d696e2e0000000000600082015250565b6000610bb9601b83610b72565b9150610bc482610b83565b602082019050919050565b60006020820190508181036000830152610be881610bac565b9050919050565b7f41646472657373207a65726f206e6f7420616c6c6f7765640000000000000000600082015250565b6000610c25601883610b72565b9150610c3082610bef565b602082019050919050565b60006020820190508181036000830152610c5481610c18565b9050919050565b7f53747564656e742066756c6c206e616d65206d7573742062652066696c6c6564600082015250565b6000610c91602083610b72565b9150610c9c82610c5b565b602082019050919050565b60006020820190508181036000830152610cc081610c84565b9050919050565b7f4e487b7100000000000000000000000000000000000000000000000000000000600052601160045260246000fd5b6000610d0182610982565b91507fffffffffffffffffffffffffffffffffffffffffffffffffffffffffffffffff8203610d3357610d32610cc7565b5b600182019050919050565b7f4e487b7100000000000000000000000000000000000000000000000000000000600052602260045260246000fd5b60006002820490506001821680610d8557607f821691505b602082108103610d9857610d97610d3e565b5b50919050565b60008190508160005260206000209050919050565b60006020601f8301049050919050565b600082821b905092915050565b600060088302610e007fffffffffffffffffffffffffffffffffffffffffffffffffffffffffffffffff82610dc3565b610e0a8683610dc3565b95508019841693508086168417925050509392505050565b6000819050919050565b6000610e47610e42610e3d84610982565b610e22565b610982565b9050919050565b6000819050919050565b610e6183610e2c565b610e75610e6d82610e4e565b848454610dd0565b825550505050565b600090565b610e8a610e7d565b610e95818484610e58565b505050565b5b81811015610eb957610eae600082610e82565b600181019050610e9b565b5050565b601f821115610efe57610ecf81610d9e565b610ed884610db3565b81016020851015610ee7578190505b610efb610ef385610db3565b830182610e9a565b50505b505050565b600082821c905092915050565b6000610f2160001984600802610f03565b1980831691505092915050565b6000610f3a8383610f10565b9150826002028217905092915050565b610f53826109f4565b67ffffffffffffffff811115610f6c57610f6b6107a9565b5b610f768254610d6d565b610f81828285610ebd565b600060209050601f831160018114610fb45760008415610fa2578287015190505b610fac8582610f2e565b865550611014565b601f198416610fc286610d9e565b60005b82811015610fea57848901518255600182019150602085019450602081019050610fc5565b868310156110075784890151611003601f891682610f10565b8355505b6001600288020188555050505b505050505050565b7f4f7574206f6620626f756e642100000000000000000000000000000000000000600082015250565b6000611052600d83610b72565b915061105d8261101c565b602082019050919050565b6000602082019050818103600083015261108181611045565b9050919050565b600061109382610982565b915061109e83610982565b92508282039050818111156110b6576110b5610cc7565b5b92915050565b7f4e487b7100000000000000000000000000000000000000000000000000000000600052603260045260246000fd5b6000815490506110fa81610d6d565b9050919050565b81810361110f5750506111e7565b611118826110eb565b67ffffffffffffffff811115611131576111306107a9565b5b61113b8254610d6d565b611146828285610ebd565b6000601f8311600181146111755760008415611163578287015490505b61116d8582610f2e565b8655506111e0565b601f19841661118387610d9e565b965061118e86610d9e565b60005b828110156111b657848901548255600182019150600185019450602081019050611191565b868310156111d357848901546111cf601f891682610f10565b8355505b6001600288020188555050505b5050505050505b565b7f4e487b7100000000000000000000000000000000000000000000000000000000600052603160045260246000fd5b600061122382610982565b91506000820361123657611235610cc7565b5b60018203905091905056fea26469706673582212202cec0dabed4270e5eac3c735f0e6ccf4d89ce0806de6406ed6ec969b7b77e70564736f6c634300081b0033",
  "linkReferences": {},
  "deployedLinkReferences": {}
}