{
  "_format": "hh-sol-artifact-1",
  "contractName": "RegistrationSystem",
  "sourceName": "contracts/RegistrationSystem.sol",
  "abi": [
    {
      "inputs": [],
      "stateMutability": "nonpayable",
      "type": "constructor"
    },
    {
      "inputs": [],
      "name": "admin",
      "outputs": [
        {
          "internalType": "address",
          "name": "",
          "type": "address"
        }
      ],
      "stateMutability": "view",
      "type": "function"
    },
    {
      "inputs": [
        {
          "internalType": "uint256",
          "name": "_studentId",
          "type": "uint256"
        }
      ],
      "name": "getStudentById",
      "outputs": [
        {
          "components": [
            {
              "internalType": "uint256",
              "name": "id",
              "type": "uint256"
            },
            {
              "internalType": "string",
              "name": "fullName",
              "type": "string"
            },
            {
              "internalType": "string",
              "name": "class",
              "type": "string"
            }
          ],
          "internalType": "struct RegistrationSystem.StudentDetails",
          "name": "",
          "type": "tuple"
        }
      ],
      "stateMutability": "view",
      "type": "function"
    },
    {
      "inputs": [
        {
          "internalType": "string",
          "name": "_fullName",
          "type": "string"
        },
        {
          "internalType": "string",
          "name": "_class",
          "type": "string"
        }
      ],
      "name": "registerStudent",
      "outputs": [
        {
          "internalType": "bool",
          "name": "",
          "type": "bool"
        }
      ],
      "stateMutability": "nonpayable",
      "type": "function"
    },
    {
      "inputs": [
        {
          "internalType": "uint256",
          "name": "_studentId",
          "type": "uint256"
        }
      ],
      "name": "removeStudent",
      "outputs": [
        {
          "internalType": "bool",
          "name": "",
          "type": "bool"
        }
      ],
      "stateMutability": "nonpayable",
      "type": "function"
    },
    {
      "inputs": [],
      "name": "studentCounts",
      "outputs": [
        {
          "internalType": "uint256",
          "name": "",
          "type": "uint256"
        }
      ],
      "stateMutability": "view",
      "type": "function"
    }
  ],
  "bytecode": "0x6080604052348015600f57600080fd5b50336000806101000a81548173ffffffffffffffffffffffffffffffffffffffff021916908373ffffffffffffffffffffffffffffffffffffffff1602179055506112be8061005f6000396000f3fe608060405234801561001057600080fd5b50600436106100575760003560e01c80630a1b776c1461005c5780636af838451461008c578063c8fb0793146100bc578063f851a440146100ec578063fb3189e81461010a575b600080fd5b6100766004803603810190610071919061091b565b610128565b60405161008391906109ae565b60405180910390f35b6100a660048036038101906100a191906109ff565b61031b565b6040516100b391906109ae565b60405180910390f35b6100d660048036038101906100d191906109ff565b610562565b6040516100e39190610b11565b60405180910390f35b6100f4610719565b6040516101019190610b74565b60405180910390f35b61011261073d565b60405161011f9190610b9e565b60405180910390f35b60008060009054906101000a900473ffffffffffffffffffffffffffffffffffffffff1673ffffffffffffffffffffffffffffffffffffffff163373ffffffffffffffffffffffffffffffffffffffff16146101b9576040517f08c379a00000000000000000000000000000000000000000000000000000000081526004016101b090610c16565b60405180910390fd5b600073ffffffffffffffffffffffffffffffffffffffff163373ffffffffffffffffffffffffffffffffffffffff1603610228576040517f08c379a000000000000000000000000000000000000000000000000000000000815260040161021f90610c82565b60405180910390fd5b600083511161026c576040517f08c379a000000000000000000000000000000000000000000000000000000000815260040161026390610cee565b60405180910390fd5b60006001600081548092919061028190610d3d565b91905055905061028f610743565b8181600001818152505084816020018190525083816040018190525060028190806001815401808255809150506001900390600052602060002090600302016000909190919091506000820151816000015560208201518160010190816102f69190610f91565b50604082015181600201908161030c9190610f91565b50505060019250505092915050565b60008060009054906101000a900473ffffffffffffffffffffffffffffffffffffffff1673ffffffffffffffffffffffffffffffffffffffff163373ffffffffffffffffffffffffffffffffffffffff16146103ac576040517f08c379a00000000000000000000000000000000000000000000000000000000081526004016103a390610c16565b60405180910390fd5b600073ffffffffffffffffffffffffffffffffffffffff163373ffffffffffffffffffffffffffffffffffffffff160361041b576040517f08c379a000000000000000000000000000000000000000000000000000000000815260040161041290610c82565b60405180910390fd5b6002805490508210610462576040517f08c379a0000000000000000000000000000000000000000000000000000000008152600401610459906110af565b60405180910390fd5b6002600160028054905061047691906110cf565b8154811061048757610486611103565b5b9060005260206000209060030201600283815481106104a9576104a8611103565b5b906000526020600020906003020160008201548160000155600182018160010190816104d59190611148565b50600282018160020190816104ea9190611148565b509050506002805480610500576104ff611230565b5b600190038181906000526020600020906003020160008082016000905560018201600061052d9190610764565b60028201600061053d9190610764565b50509055600160008154809291906105549061125f565b919050555060019050919050565b61056a610743565b60028054905082106105b1576040517f08c379a00000000000000000000000000000000000000000000000000000000081526004016105a8906110af565b60405180910390fd5b6000600283815481106105c7576105c6611103565b5b9060005260206000209060030201604051806060016040529081600082015481526020016001820180546105fa90610db4565b80601f016020809104026020016040519081016040528092919081815260200182805461062690610db4565b80156106735780601f1061064857610100808354040283529160200191610673565b820191906000526020600020905b81548152906001019060200180831161065657829003601f168201915b5050505050815260200160028201805461068c90610db4565b80601f01602080910402602001604051908101604052809291908181526020018280546106b890610db4565b80156107055780601f106106da57610100808354040283529160200191610705565b820191906000526020600020905b8154815290600101906020018083116106e857829003601f168201915b505050505081525050905080915050919050565b60008054906101000a900473ffffffffffffffffffffffffffffffffffffffff1681565b60015481565b60405180606001604052806000815260200160608152602001606081525090565b50805461077090610db4565b6000825580601f1061078257506107a1565b601f0160209004906000526020600020908101906107a091906107a4565b5b50565b5b808211156107bd5760008160009055506001016107a5565b5090565b6000604051905090565b600080fd5b600080fd5b600080fd5b600080fd5b6000601f19601f8301169050919050565b7f4e487b7100000000000000000000000000000000000000000000000000000000600052604160045260246000fd5b610828826107df565b810181811067ffffffffffffffff82111715610847576108466107f0565b5b80604052505050565b600061085a6107c1565b9050610866828261081f565b919050565b600067ffffffffffffffff821115610886576108856107f0565b5b61088f826107df565b9050602081019050919050565b82818337600083830152505050565b60006108be6108b98461086b565b610850565b9050828152602081018484840111156108da576108d96107da565b5b6108e584828561089c565b509392505050565b600082601f830112610902576109016107d5565b5b81356109128482602086016108ab565b91505092915050565b60008060408385031215610932576109316107cb565b5b600083013567ffffffffffffffff8111156109505761094f6107d0565b5b61095c858286016108ed565b925050602083013567ffffffffffffffff81111561097d5761097c6107d0565b5b610989858286016108ed565b9150509250929050565b60008115159050919050565b6109a881610993565b82525050565b60006020820190506109c3600083018461099f565b92915050565b6000819050919050565b6109dc816109c9565b81146109e757600080fd5b50565b6000813590506109f9816109d3565b92915050565b600060208284031215610a1557610a146107cb565b5b6000610a23848285016109ea565b91505092915050565b610a35816109c9565b82525050565b600081519050919050565b600082825260208201905092915050565b60005b83811015610a75578082015181840152602081019050610a5a565b60008484015250505050565b6000610a8c82610a3b565b610a968185610a46565b9350610aa6818560208601610a57565b610aaf816107df565b840191505092915050565b6000606083016000830151610ad26000860182610a2c565b5060208301518482036020860152610aea8282610a81565b91505060408301518482036040860152610b048282610a81565b9150508091505092915050565b60006020820190508181036000830152610b2b8184610aba565b905092915050565b600073ffffffffffffffffffffffffffffffffffffffff82169050919050565b6000610b5e82610b33565b9050919050565b610b6e81610b53565b82525050565b6000602082019050610b896000830184610b65565b92915050565b610b98816109c9565b82525050565b6000602082019050610bb36000830184610b8f565b92915050565b600082825260208201905092915050565b7f4865792120596f7520617265206e6f74207468652061646d696e2e0000000000600082015250565b6000610c00601b83610bb9565b9150610c0b82610bca565b602082019050919050565b60006020820190508181036000830152610c2f81610bf3565b9050919050565b7f41646472657373207a65726f206e6f7420616c6c6f7765640000000000000000600082015250565b6000610c6c601883610bb9565b9150610c7782610c36565b602082019050919050565b60006020820190508181036000830152610c9b81610c5f565b9050919050565b7f53747564656e742066756c6c206e616d65206d7573742062652066696c6c6564600082015250565b6000610cd8602083610bb9565b9150610ce382610ca2565b602082019050919050565b60006020820190508181036000830152610d0781610ccb565b9050919050565b7f4e487b7100000000000000000000000000000000000000000000000000000000600052601160045260246000fd5b6000610d48826109c9565b91507fffffffffffffffffffffffffffffffffffffffffffffffffffffffffffffffff8203610d7a57610d79610d0e565b5b600182019050919050565b7f4e487b7100000000000000000000000000000000000000000000000000000000600052602260045260246000fd5b60006002820490506001821680610dcc57607f821691505b602082108103610ddf57610dde610d85565b5b50919050565b60008190508160005260206000209050919050565b60006020601f8301049050919050565b600082821b905092915050565b600060088302610e477fffffffffffffffffffffffffffffffffffffffffffffffffffffffffffffffff82610e0a565b610e518683610e0a565b95508019841693508086168417925050509392505050565b6000819050919050565b6000610e8e610e89610e84846109c9565b610e69565b6109c9565b9050919050565b6000819050919050565b610ea883610e73565b610ebc610eb482610e95565b848454610e17565b825550505050565b600090565b610ed1610ec4565b610edc818484610e9f565b505050565b5b81811015610f0057610ef5600082610ec9565b600181019050610ee2565b5050565b601f821115610f4557610f1681610de5565b610f1f84610dfa565b81016020851015610f2e578190505b610f42610f3a85610dfa565b830182610ee1565b50505b505050565b600082821c905092915050565b6000610f6860001984600802610f4a565b1980831691505092915050565b6000610f818383610f57565b9150826002028217905092915050565b610f9a82610a3b565b67ffffffffffffffff811115610fb357610fb26107f0565b5b610fbd8254610db4565b610fc8828285610f04565b600060209050601f831160018114610ffb5760008415610fe9578287015190505b610ff38582610f75565b86555061105b565b601f19841661100986610de5565b60005b828110156110315784890151825560018201915060208501945060208101905061100c565b8683101561104e578489015161104a601f891682610f57565b8355505b6001600288020188555050505b505050505050565b7f4f7574206f6620626f756e642100000000000000000000000000000000000000600082015250565b6000611099600d83610bb9565b91506110a482611063565b602082019050919050565b600060208201905081810360008301526110c88161108c565b9050919050565b60006110da826109c9565b91506110e5836109c9565b92508282039050818111156110fd576110fc610d0e565b5b92915050565b7f4e487b7100000000000000000000000000000000000000000000000000000000600052603260045260246000fd5b60008154905061114181610db4565b9050919050565b81810361115657505061122e565b61115f82611132565b67ffffffffffffffff811115611178576111776107f0565b5b6111828254610db4565b61118d828285610f04565b6000601f8311600181146111bc57600084156111aa578287015490505b6111b48582610f75565b865550611227565b601f1984166111ca87610de5565b96506111d586610de5565b60005b828110156111fd578489015482556001820191506001850194506020810190506111d8565b8683101561121a5784890154611216601f891682610f57565b8355505b6001600288020188555050505b5050505050505b565b7f4e487b7100000000000000000000000000000000000000000000000000000000600052603160045260246000fd5b600061126a826109c9565b91506000820361127d5761127c610d0e565b5b60018203905091905056fea264697066735822122091c4370cacc00da2af379ab21fbe96743217d371578745bd86b040b7d75a7c3164736f6c634300081b0033",
  "linkReferences": {},
  "deployedLinkReferences": {}
}